{
  "contractName": "EWasteTracking",
  "abi": [
    {
      "inputs": [],
      "stateMutability": "nonpayable",
      "type": "constructor"
    },
    {
      "anonymous": false,
      "inputs": [
        {
          "indexed": false,
          "internalType": "string",
          "name": "itemId",
          "type": "string"
        },
        {
          "indexed": false,
          "internalType": "enum EWasteTracking.Status",
          "name": "newStatus",
          "type": "uint8"
        }
      ],
      "name": "StatusUpdated",
      "type": "event"
    },
    {
      "anonymous": false,
      "inputs": [
        {
          "indexed": false,
          "internalType": "string",
          "name": "vendorId",
          "type": "string"
        },
        {
          "indexed": false,
          "internalType": "string[]",
          "name": "certifications",
          "type": "string[]"
        }
      ],
      "name": "VendorVerified",
      "type": "event"
    },
    {
      "anonymous": false,
      "inputs": [
        {
          "indexed": false,
          "internalType": "string",
          "name": "itemId",
          "type": "string"
        },
        {
          "indexed": false,
          "internalType": "string",
          "name": "itemType",
          "type": "string"
        },
        {
          "indexed": false,
          "internalType": "uint256",
          "name": "timestamp",
          "type": "uint256"
        }
      ],
      "name": "WasteItemRecorded",
      "type": "event"
    },
    {
      "inputs": [
        {
          "internalType": "address",
          "name": "",
          "type": "address"
        }
      ],
      "name": "admins",
      "outputs": [
        {
          "internalType": "bool",
          "name": "",
          "type": "bool"
        }
      ],
      "stateMutability": "view",
      "type": "function",
      "constant": true
    },
    {
      "inputs": [
        {
          "internalType": "string",
          "name": "",
          "type": "string"
        }
      ],
      "name": "vendors",
      "outputs": [
        {
          "internalType": "bool",
          "name": "isVerified",
          "type": "bool"
        },
        {
          "internalType": "uint256",
          "name": "verificationDate",
          "type": "uint256"
        }
      ],
      "stateMutability": "view",
      "type": "function",
      "constant": true
    },
    {
      "inputs": [
        {
          "internalType": "string",
          "name": "",
          "type": "string"
        }
      ],
      "name": "wasteItems",
      "outputs": [
        {
          "internalType": "string",
          "name": "itemType",
          "type": "string"
        },
        {
          "internalType": "uint256",
          "name": "weight",
          "type": "uint256"
        },
        {
          "internalType": "uint256",
          "name": "timestamp",
          "type": "uint256"
        },
        {
          "internalType": "string",
          "name": "userId",
          "type": "string"
        },
        {
          "internalType": "enum EWasteTracking.Status",
          "name": "status",
          "type": "uint8"
        }
      ],
      "stateMutability": "view",
      "type": "function",
      "constant": true
    },
    {
      "inputs": [
        {
          "internalType": "string",
          "name": "itemId",
          "type": "string"
        },
        {
          "internalType": "string",
          "name": "itemType",
          "type": "string"
        },
        {
          "internalType": "uint256",
          "name": "weight",
          "type": "uint256"
        },
        {
          "internalType": "uint256",
          "name": "timestamp",
          "type": "uint256"
        },
        {
          "internalType": "string",
          "name": "userId",
          "type": "string"
        }
      ],
      "name": "recordWasteItem",
      "outputs": [],
      "stateMutability": "nonpayable",
      "type": "function"
    },
    {
      "inputs": [
        {
          "internalType": "string",
          "name": "itemId",
          "type": "string"
        },
        {
          "internalType": "enum EWasteTracking.Status",
          "name": "newStatus",
          "type": "uint8"
        }
      ],
      "name": "updateStatus",
      "outputs": [],
      "stateMutability": "nonpayable",
      "type": "function"
    },
    {
      "inputs": [
        {
          "internalType": "string",
          "name": "vendorId",
          "type": "string"
        },
        {
          "internalType": "string[]",
          "name": "certifications",
          "type": "string[]"
        }
      ],
      "name": "verifyVendor",
      "outputs": [],
      "stateMutability": "nonpayable",
      "type": "function"
    },
    {
      "inputs": [
        {
          "internalType": "string",
          "name": "itemId",
          "type": "string"
        }
      ],
      "name": "getWasteItemHistory",
      "outputs": [
        {
          "internalType": "string",
          "name": "itemType",
          "type": "string"
        },
        {
          "internalType": "uint256",
          "name": "weight",
          "type": "uint256"
        },
        {
          "internalType": "uint256",
          "name": "timestamp",
          "type": "uint256"
        },
        {
          "internalType": "enum EWasteTracking.Status",
          "name": "status",
          "type": "uint8"
        },
        {
          "internalType": "address[]",
          "name": "handlers",
          "type": "address[]"
        }
      ],
      "stateMutability": "view",
      "type": "function",
      "constant": true
    },
    {
      "inputs": [
        {
          "internalType": "string",
          "name": "vendorId",
          "type": "string"
        }
      ],
      "name": "isVendorVerified",
      "outputs": [
        {
          "internalType": "bool",
          "name": "",
          "type": "bool"
        }
      ],
      "stateMutability": "view",
      "type": "function",
      "constant": true
    },
    {
      "inputs": [
        {
          "internalType": "address",
          "name": "newAdmin",
          "type": "address"
        }
      ],
      "name": "addAdmin",
      "outputs": [],
      "stateMutability": "nonpayable",
      "type": "function"
    },
    {
      "inputs": [
        {
          "internalType": "address",
          "name": "admin",
          "type": "address"
        }
      ],
      "name": "removeAdmin",
      "outputs": [],
      "stateMutability": "nonpayable",
      "type": "function"
    }
  ],
  "bytecode": "0x608060405234801561001057600080fd5b506001600260003373ffffffffffffffffffffffffffffffffffffffff1673ffffffffffffffffffffffffffffffffffffffff16815260200190815260200160002060006101000a81548160ff021916908315150217905550611952806100786000396000f3fe608060405234801561001057600080fd5b506004361061009e5760003560e01c80635e8f29ad116100665780635e8f29ad146101575780636e9001e71461017357806370480275146101a757806391fa0b51146101c3578063cb965d99146101f45761009e565b8063117bea1d146100a35780631785f53c146100bf578063429b62e5146100db5780634c96ecd11461010b578063536169821461013b575b600080fd5b6100bd60048036038101906100b89190610fa8565b610228565b005b6100d960048036038101906100d49190610f3e565b610377565b005b6100f560048036038101906100f09190610f3e565b6104cd565b6040516101029190611402565b60405180910390f35b61012560048036038101906101209190610f67565b6104ed565b6040516101329190611402565b60405180910390f35b61015560048036038101906101509190611014565b610525565b005b610171600480360381019061016c9190611068565b61074e565b005b61018d60048036038101906101889190610f67565b610849565b60405161019e959493929190611553565b60405180910390f35b6101c160048036038101906101bc9190610f3e565b6109b2565b005b6101dd60048036038101906101d89190610f67565b610a99565b6040516101eb92919061141d565b60405180910390f35b61020e60048036038101906102099190610f67565b610ae0565b60405161021f9594939291906114f2565b60405180910390f35b600260003373ffffffffffffffffffffffffffffffffffffffff1673ffffffffffffffffffffffffffffffffffffffff16815260200190815260200160002060009054906101000a900460ff166102b4576040517f08c379a00000000000000000000000000000000000000000000000000000000081526004016102ab906115d4565b60405180910390fd5b6040518060600160405280828152602001600115158152602001428152506001836040516102e291906113eb565b9081526020016040518091039020600082015181600001908051906020019061030c929190610ca9565b5060208201518160010160006101000a81548160ff021916908315150217905550604082015181600201559050507fbf20dea4720853ada23157a137b6cb885c19c3e43ae95d9f5c4b1d4ba10160d8828260405161036b929190611446565b60405180910390a15050565b600260003373ffffffffffffffffffffffffffffffffffffffff1673ffffffffffffffffffffffffffffffffffffffff16815260200190815260200160002060009054906101000a900460ff16610403576040517f08c379a00000000000000000000000000000000000000000000000000000000081526004016103fa906115d4565b60405180910390fd5b8073ffffffffffffffffffffffffffffffffffffffff163373ffffffffffffffffffffffffffffffffffffffff161415610472576040517f08c379a0000000000000000000000000000000000000000000000000000000008152600401610469906115b4565b60405180910390fd5b6000600260008373ffffffffffffffffffffffffffffffffffffffff1673ffffffffffffffffffffffffffffffffffffffff16815260200190815260200160002060006101000a81548160ff02191690831515021790555050565b60026020528060005260406000206000915054906101000a900460ff1681565b60006001826040516104ff91906113eb565b908152602001604051809103902060010160009054906101000a900460ff169050919050565b600260003373ffffffffffffffffffffffffffffffffffffffff1673ffffffffffffffffffffffffffffffffffffffff16815260200190815260200160002060009054906101000a900460ff166105b1576040517f08c379a00000000000000000000000000000000000000000000000000000000081526004016105a8906115d4565b60405180910390fd5b600080836040516105c291906113eb565b908152602001604051809103902060000180546105de906117fa565b905011610620576040517f08c379a0000000000000000000000000000000000000000000000000000000008152600401610617906115f4565b60405180910390fd5b8060008360405161063191906113eb565b908152602001604051809103902060040160006101000a81548160ff0219169083600281111561068a577f4e487b7100000000000000000000000000000000000000000000000000000000600052602160045260246000fd5b021790555060008260405161069f91906113eb565b9081526020016040518091039020600501339080600181540180825580915050600190039060005260206000200160009091909190916101000a81548173ffffffffffffffffffffffffffffffffffffffff021916908373ffffffffffffffffffffffffffffffffffffffff1602179055507f4e407d4f938199e743ff3f9c87db0c2b408db2c74b3b83b01299015302ef0532828260405161074292919061147d565b60405180910390a15050565b6000808660405161075f91906113eb565b9081526020016040518091039020905084816000019080519060200190610787929190610d09565b50838160010181905550828160020181905550818160030190805190602001906107b2929190610d09565b5060008160040160006101000a81548160ff02191690836002811115610801577f4e487b7100000000000000000000000000000000000000000000000000000000600052602160045260246000fd5b02179055507f880fe3b4f8d519fd0abe3f0eba558d7f350bc89f6d491e762279fd3af21b749d868685604051610839939291906114ad565b60405180910390a1505050505050565b600081805160208101820180518482526020830160208501208183528095505050505050600091509050806000018054610882906117fa565b80601f01602080910402602001604051908101604052809291908181526020018280546108ae906117fa565b80156108fb5780601f106108d0576101008083540402835291602001916108fb565b820191906000526020600020905b8154815290600101906020018083116108de57829003601f168201915b50505050509080600101549080600201549080600301805461091c906117fa565b80601f0160208091040260200160405190810160405280929190818152602001828054610948906117fa565b80156109955780601f1061096a57610100808354040283529160200191610995565b820191906000526020600020905b81548152906001019060200180831161097857829003601f168201915b5050505050908060040160009054906101000a900460ff16905085565b600260003373ffffffffffffffffffffffffffffffffffffffff1673ffffffffffffffffffffffffffffffffffffffff16815260200190815260200160002060009054906101000a900460ff16610a3e576040517f08c379a0000000000000000000000000000000000000000000000000000000008152600401610a35906115d4565b60405180910390fd5b6001600260008373ffffffffffffffffffffffffffffffffffffffff1673ffffffffffffffffffffffffffffffffffffffff16815260200190815260200160002060006101000a81548160ff02191690831515021790555050565b6001818051602081018201805184825260208301602085012081835280955050505050506000915090508060010160009054906101000a900460ff16908060020154905082565b60606000806000606060008087604051610afa91906113eb565b908152602001604051809103902090506000816000018054610b1b906117fa565b905011610b5d576040517f08c379a0000000000000000000000000000000000000000000000000000000008152600401610b54906115f4565b60405180910390fd5b80600001816001015482600201548360040160009054906101000a900460ff1684600501848054610b8d906117fa565b80601f0160208091040260200160405190810160405280929190818152602001828054610bb9906117fa565b8015610c065780601f10610bdb57610100808354040283529160200191610c06565b820191906000526020600020905b815481529060010190602001808311610be957829003601f168201915b5050505050945080805480602002602001604051908101604052809291908181526020018280548015610c8e57602002820191906000526020600020905b8160009054906101000a900473ffffffffffffffffffffffffffffffffffffffff1673ffffffffffffffffffffffffffffffffffffffff1681526020019060010190808311610c44575b50505050509050955095509550955095505091939590929450565b828054828255906000526020600020908101928215610cf8579160200282015b82811115610cf7578251829080519060200190610ce7929190610d09565b5091602001919060010190610cc9565b5b509050610d059190610d8f565b5090565b828054610d15906117fa565b90600052602060002090601f016020900481019282610d375760008555610d7e565b82601f10610d5057805160ff1916838001178555610d7e565b82800160010185558215610d7e579182015b82811115610d7d578251825591602001919060010190610d62565b5b509050610d8b9190610db3565b5090565b5b80821115610daf5760008181610da69190610dd0565b50600101610d90565b5090565b5b80821115610dcc576000816000905550600101610db4565b5090565b508054610ddc906117fa565b6000825580601f10610dee5750610e0d565b601f016020900490600052602060002090810190610e0c9190610db3565b5b50565b6000610e23610e1e84611645565b611614565b9050808382526020820190508260005b85811015610e635781358501610e498882610eff565b845260208401935060208301925050600181019050610e33565b5050509392505050565b6000610e80610e7b84611671565b611614565b905082815260208101848484011115610e9857600080fd5b610ea38482856117b8565b509392505050565b600081359050610eba816118de565b92915050565b600082601f830112610ed157600080fd5b8135610ee1848260208601610e10565b91505092915050565b600081359050610ef9816118f5565b92915050565b600082601f830112610f1057600080fd5b8135610f20848260208601610e6d565b91505092915050565b600081359050610f3881611905565b92915050565b600060208284031215610f5057600080fd5b6000610f5e84828501610eab565b91505092915050565b600060208284031215610f7957600080fd5b600082013567ffffffffffffffff811115610f9357600080fd5b610f9f84828501610eff565b91505092915050565b60008060408385031215610fbb57600080fd5b600083013567ffffffffffffffff811115610fd557600080fd5b610fe185828601610eff565b925050602083013567ffffffffffffffff811115610ffe57600080fd5b61100a85828601610ec0565b9150509250929050565b6000806040838503121561102757600080fd5b600083013567ffffffffffffffff81111561104157600080fd5b61104d85828601610eff565b925050602061105e85828601610eea565b9150509250929050565b600080600080600060a0868803121561108057600080fd5b600086013567ffffffffffffffff81111561109a57600080fd5b6110a688828901610eff565b955050602086013567ffffffffffffffff8111156110c357600080fd5b6110cf88828901610eff565b94505060406110e088828901610f29565b93505060606110f188828901610f29565b925050608086013567ffffffffffffffff81111561110e57600080fd5b61111a88828901610eff565b9150509295509295909350565b60006111338383611153565b60208301905092915050565b600061114b8383611253565b905092915050565b61115c8161174b565b82525050565b600061116d826116c1565b61117781856116fc565b9350611182836116a1565b8060005b838110156111b357815161119a8882611127565b97506111a5836116e2565b925050600181019050611186565b5085935050505092915050565b60006111cb826116cc565b6111d5818561170d565b9350836020820285016111e7856116b1565b8060005b858110156112235784840389528151611204858261113f565b945061120f836116ef565b925060208a019950506001810190506111eb565b50829750879550505050505092915050565b61123e8161175d565b82525050565b61124d816117a6565b82525050565b600061125e826116d7565b611268818561171e565b93506112788185602086016117c7565b611281816118b9565b840191505092915050565b6000611297826116d7565b6112a1818561172f565b93506112b18185602086016117c7565b6112ba816118b9565b840191505092915050565b60006112d0826116d7565b6112da8185611740565b93506112ea8185602086016117c7565b80840191505092915050565b6000611303601b8361172f565b91507f43616e6e6f742072656d6f76652073656c662061732061646d696e00000000006000830152602082019050919050565b600061134360228361172f565b91507f4f6e6c792061646d696e2063616e20706572666f726d2074686973206163746960008301527f6f6e0000000000000000000000000000000000000000000000000000000000006020830152604082019050919050565b60006113a960138361172f565b91507f4974656d20646f6573206e6f74206578697374000000000000000000000000006000830152602082019050919050565b6113e58161179c565b82525050565b60006113f782846112c5565b915081905092915050565b60006020820190506114176000830184611235565b92915050565b60006040820190506114326000830185611235565b61143f60208301846113dc565b9392505050565b60006040820190508181036000830152611460818561128c565b9050818103602083015261147481846111c0565b90509392505050565b60006040820190508181036000830152611497818561128c565b90506114a66020830184611244565b9392505050565b600060608201905081810360008301526114c7818661128c565b905081810360208301526114db818561128c565b90506114ea60408301846113dc565b949350505050565b600060a082019050818103600083015261150c818861128c565b905061151b60208301876113dc565b61152860408301866113dc565b6115356060830185611244565b81810360808301526115478184611162565b90509695505050505050565b600060a082019050818103600083015261156d818861128c565b905061157c60208301876113dc565b61158960408301866113dc565b818103606083015261159b818561128c565b90506115aa6080830184611244565b9695505050505050565b600060208201905081810360008301526115cd816112f6565b9050919050565b600060208201905081810360008301526115ed81611336565b9050919050565b6000602082019050818103600083015261160d8161139c565b9050919050565b6000604051905081810181811067ffffffffffffffff8211171561163b5761163a61188a565b5b8060405250919050565b600067ffffffffffffffff8211156116605761165f61188a565b5b602082029050602081019050919050565b600067ffffffffffffffff82111561168c5761168b61188a565b5b601f19601f8301169050602081019050919050565b6000819050602082019050919050565b6000819050602082019050919050565b600081519050919050565b600081519050919050565b600081519050919050565b6000602082019050919050565b6000602082019050919050565b600082825260208201905092915050565b600082825260208201905092915050565b600082825260208201905092915050565b600082825260208201905092915050565b600081905092915050565b60006117568261177c565b9050919050565b60008115159050919050565b6000819050611777826118ca565b919050565b600073ffffffffffffffffffffffffffffffffffffffff82169050919050565b6000819050919050565b60006117b182611769565b9050919050565b82818337600083830152505050565b60005b838110156117e55780820151818401526020810190506117ca565b838111156117f4576000848401525b50505050565b6000600282049050600182168061181257607f821691505b602082108114156118265761182561185b565b5b50919050565b7f4e487b7100000000000000000000000000000000000000000000000000000000600052602160045260246000fd5b7f4e487b7100000000000000000000000000000000000000000000000000000000600052602260045260246000fd5b7f4e487b7100000000000000000000000000000000000000000000000000000000600052604160045260246000fd5b6000601f19601f8301169050919050565b600381106118db576118da61182c565b5b50565b6118e78161174b565b81146118f257600080fd5b50565b6003811061190257600080fd5b50565b61190e8161179c565b811461191957600080fd5b5056fea2646970667358221220f70aa341962c2c0210947774bb9e76dc2159c15d73aabc60ff073d9a8b1e784d64736f6c63430008000033",
  "immutableReferences": {},
  "source": "// SPDX-License-Identifier: MIT\r\npragma solidity ^0.8.0;\r\n\r\ncontract EWasteTracking {\r\n    struct WasteItem {\r\n        string itemType;\r\n        uint256 weight;\r\n        uint256 timestamp;\r\n        string userId;\r\n        Status status;\r\n        address[] handlers;\r\n    }\r\n\r\n    struct Vendor {\r\n        string[] certifications;\r\n        bool isVerified;\r\n        uint256 verificationDate;\r\n    }\r\n\r\n    enum Status { Pending, InProgress, Completed }\r\n\r\n    mapping(string => WasteItem) public wasteItems;\r\n    mapping(string => Vendor) public vendors;\r\n    mapping(address => bool) public admins;\r\n\r\n    event WasteItemRecorded(string itemId, string itemType, uint256 timestamp);\r\n    event StatusUpdated(string itemId, Status newStatus);\r\n    event VendorVerified(string vendorId, string[] certifications);\r\n\r\n    constructor() {\r\n        admins[msg.sender] = true;\r\n    }\r\n\r\n    modifier onlyAdmin() {\r\n        require(admins[msg.sender], \"Only admin can perform this action\");\r\n        _;\r\n    }\r\n\r\n    function recordWasteItem(\r\n        string memory itemId,\r\n        string memory itemType,\r\n        uint256 weight,\r\n        uint256 timestamp,\r\n        string memory userId\r\n    ) public {\r\n        WasteItem storage item = wasteItems[itemId];\r\n        item.itemType = itemType;\r\n        item.weight = weight;\r\n        item.timestamp = timestamp;\r\n        item.userId = userId;\r\n        item.status = Status.Pending;\r\n        \r\n        emit WasteItemRecorded(itemId, itemType, timestamp);\r\n    }\r\n\r\n    function updateStatus(string memory itemId, Status newStatus) public onlyAdmin {\r\n        require(bytes(wasteItems[itemId].itemType).length > 0, \"Item does not exist\");\r\n        wasteItems[itemId].status = newStatus;\r\n        wasteItems[itemId].handlers.push(msg.sender);\r\n        \r\n        emit StatusUpdated(itemId, newStatus);\r\n    }\r\n\r\n    function verifyVendor(string memory vendorId, string[] memory certifications) public onlyAdmin {\r\n        vendors[vendorId] = Vendor({\r\n            certifications: certifications,\r\n            isVerified: true,\r\n            verificationDate: block.timestamp\r\n        });\r\n        \r\n        emit VendorVerified(vendorId, certifications);\r\n    }\r\n\r\n    function getWasteItemHistory(string memory itemId) public view returns (\r\n        string memory itemType,\r\n        uint256 weight,\r\n        uint256 timestamp,\r\n        Status status,\r\n        address[] memory handlers\r\n    ) {\r\n        WasteItem storage item = wasteItems[itemId];\r\n        require(bytes(item.itemType).length > 0, \"Item does not exist\");\r\n        \r\n        return (\r\n            item.itemType,\r\n            item.weight,\r\n            item.timestamp,\r\n            item.status,\r\n            item.handlers\r\n        );\r\n    }\r\n\r\n    function isVendorVerified(string memory vendorId) public view returns (bool) {\r\n        return vendors[vendorId].isVerified;\r\n    }\r\n\r\n    function addAdmin(address newAdmin) public onlyAdmin {\r\n        admins[newAdmin] = true;\r\n    }\r\n\r\n    function removeAdmin(address admin) public onlyAdmin {\r\n        require(msg.sender != admin, \"Cannot remove self as admin\");\r\n        admins[admin] = false;\r\n    }\r\n}",
  "sourcePath": "D:\\LandTProject\\EcoTrack\\Blockchain\\contracts\\EWasteTracking.sol",
  "compiler": {
    "name": "solc",
    "version": "0.8.0+commit.c7dfd78e.Emscripten.clang"
  },
  "schemaVersion": "3.4.16",
  "updatedAt": "2024-11-24T04:11:00.208Z",
  "networkType": "ethereum",
  "devdoc": {
    "kind": "dev",
    "methods": {},
    "version": 1
  },
  "userdoc": {
    "kind": "user",
    "methods": {},
    "version": 1
  }
}